:020000040000FA
:040000004CEF00F0D1
:020008001000E6
:080018001000838083828384C1
:10002000838A838C1200838083828384120083807E
:10003000838283848386838C1200836A1200FA0E83
:10004000026E140E016E00000000000000000000AF
:1000500000000000000000000000000000000000A0
:100060000000000000000000000000000000000090
:100070000000000000000000000000000000000080
:100080000000000000000000000000000000012E41
:10009000DAD7022ED6D71200956A0DEC00F01FECCD
:1000A00000F013EC00F01FEC00F017EC00F01FEC78
:1000B00000F017EC00F01FEC00F00DEC00F01FEC6E
:0200C00000F04E
:00000001FF
